:100000000C9434000C9451000C94D20E0C945100BA
:100010000C9451000C9451000C9451000C9451001C
:100020000C9451000C94630A0C9451000C94590ADE
:100030000C9451000C944D0A0C9451000C945100F6
:100040000C94D4090C9451000C941D0B0C94510089
:100050000C9451000C9451000C9451000C945100DC
:100060000C9451000C94510011241FBECFEFD8E026
:10007000DEBFCDBF12E0A0E0B1E0EEEDFEE102C0D8
:1000800005900D92A434B107D9F712E0A4E4B2E0D0
:1000900001C01D92AF36B107E1F70E94E10E0C944A
:1000A0006D0F0C940000EF92FF920F931F937B0152
:1000B0008C0120E030E040E05FE40E94CF03882321
:1000C0008CF0C801B70120E030E040E05FE40E941E
:1000D000CB010E948D049B01AC0120503040404078
:1000E000504806C0C801B7010E948D049B01AC01B5
:1000F000B901CA011F910F91FF90EF900895A0E000
:10010000B0E0E5E8F0E00C94360FDC012B01FA01D9
:100110009C91923008F439C1EB018881823008F457
:1001200033C1943069F4843009F02FC111969C9149
:1001300011978981981709F428C1ACE3B1E025C172
:10014000843009F421C18230A9F4923009F01DC134
:100150009A01AD0188E0EA010990AE01E901099236
:100160009E018150C1F7E201898111969C918923FA
:10017000818308C1923009F407C112962D903C90FA
:100180001397EB018A819B811496AD90BD90CD9021
:10019000DC901797EC80FD800E811F819101281B58
:1001A000390BB90137FF04C066277727621B730B31
:1001B000603271050CF061C0121613066CF5370140
:1001C0004801062E04C096948794779467940A9405
:1001D000D2F721E030E040E050E004C0220F331FAE
:1001E000441F551F6A95D2F721503040404050407F
:1001F0002E213F2140235123211531054105510571
:1002000021F021E030E040E050E079018A01E62869
:10021000F728082919293CC0232BD1F1260E371EB7
:1002200035014601062E04C096948794779467940E
:100230000A94D2F721E030E040E050E004C0220F01
:10024000331F441F551F6A95D2F72150304040405C
:1002500050402A213B214C215D21211531054105CA
:10026000510521F021E030E040E050E059016A0101
:10027000A628B728C828D9280BC0821593052CF0CA
:100280001C01AA24BB24650103C0EE24FF248701BE
:1002900011969C91D20111968C91981709F445C042
:1002A000992339F0A80197012A193B094C095D09E6
:1002B00006C0A60195012E193F09400B510B57FDB1
:1002C00008C0118233822282248335834683578378
:1002D0001DC081E081833382228288279927DC0137
:1002E000821B930BA40BB50B84839583A683B783E2
:1002F0000DC0220F331F441F551F248335834683AF
:1003000057838281938101979383828324813581EE
:1003100046815781DA01C9010197A109B1098F5FAF
:100320009F4FAF4FBF4328F30BC09183338222828C
:10033000EA0CFB1C0C1D1D1DE482F582068317834D
:1003400083E08083248135814681578157FF1AC01D
:10035000C901AA2797FDA095BA2F81709070A0704F
:10036000B0705695479537952795822B932BA42BE4
:10037000B52B84839583A683B7838281938101966D
:1003800093838283DF0101C0D201CD01CDB7DEB7F7
:10039000E2E10C94520FA0E2B0E0E1EDF1E00C9448
:1003A000420F69837A838B839C832D833E834F83A3
:1003B0005887E9E0EE2EF12CEC0EFD1ECE010196E1
:1003C000B7010E947E068E010F5E1F4FCE0105967B
:1003D000B8010E947E068A8991E089278A8BC7012D
:1003E000B801AE01475E5F4F0E947F000E94A905E1
:1003F000A096E6E00C945E0FA0E2B0E0E2E0F2E04E
:100400000C94420F69837A838B839C832D833E8374
:100410004F835887F9E0EF2EF12CEC0EFD1ECE0134
:100420000196B7010E947E068E010F5E1F4FCE011E
:100430000596B8010E947E06C701B801AE01475E6D
:100440005F4F0E947F000E94A905A096E6E00C94F1
:100450005E0FA0E2B0E0EFE2F2E00C94360F6983A9
:100460007A838B839C832D833E834F835887CE0171
:100470000196BE01675F7F4F0E947E06CE01059602
:10048000BE016F5E7F4F0E947E069985923088F094
:1004900089898230C8F0943019F4823051F404C054
:1004A000843029F4923081F48CE391E0C6C092301C
:1004B00049F420E09A858A89981321E02A87CE01A1
:1004C0000996BBC0823049F420E09A858A89981346
:1004D00021E02A8BCE014196B0C02D843E844F840A
:1004E00058886D887E888F88988CEE24FF24870139
:1004F000AA24BB24650140E050E060E070E0E0E049
:10050000F0E0C10181709070892BE9F0E60CF71CD6
:10051000081D191D9A01AB012A0D3B1D4C1D5D1DC7
:1005200080E090E0A0E0B0E0E614F70408051905CB
:1005300020F481E090E0A0E0B0E0BA01A901480F0A
:10054000591F6A1F7B1FAA0CBB1CCC1CDD1C97FE0D
:1005500008C081E090E0A0E0B0E0A82AB92ACA2A49
:10056000DB2A3196E032F10549F0660C771C881CD5
:10057000991C5694479437942794C3CFFA85EA89F7
:100580002B893C898B859C85280F391F2E5F3F4F17
:1005900017C0CA0181709070892B61F0169507957C
:1005A000F794E79480E090E0A0E0B0E8E82AF92A28
:1005B0000A2B1B2B76956795579547952F5F3F4FD5
:1005C00077FDE7CF0CC0440F551F661F771F17FD3F
:1005D0004160EE0CFF1C001F111F215030404030C5
:1005E00090E0590790E0690790E4790760F32B8F5A
:1005F0003C8FDB01CA018F779070A070B07080349F
:100600009105A105B10561F447FD0AC0E114F104AB
:100610000105110529F0405C5F4F6F4F7F4F407817
:100620001A8EFE1711F081E08A8F4D8F5E8F6F8FCB
:1006300078A383E0898FCE0149960E94A905A096F0
:10064000E2E10C94520FA8E1B0E0E9E2F3E00C948F
:100650003E0F69837A838B839C832D833E834F83F4
:100660005887B9E0EB2EF12CEC0EFD1ECE01019661
:10067000B7010E947E068E010F5E1F4FCE010596C8
:10068000B8010E947E062985223008F47EC039898F
:10069000323010F4B8017CC08A859A8989278A870C
:1006A000243011F0223031F4231709F06EC06CE3CE
:1006B00071E06EC0343039F41D861E861F86188A9C
:1006C0001C861B8604C0323021F484E08987B70180
:1006D0005FC02B853C858B899C89281B390B3C8707
:1006E0002B87ED84FE840F851889AD88BE88CF885E
:1006F000D88CEA14FB040C051D0540F4EE0CFF1C1D
:10070000001F111F215030403C872B8720E030E034
:1007100040E050E080E090E0A0E0B0E460E070E015
:10072000EA14FB040C051D0540F0282B392B4A2B3D
:100730005B2BEA18FB080C091D09B695A795979540
:100740008795EE0CFF1C001F111F6F5F7F4F6F31ED
:10075000710531F7DA01C9018F779070A070B07020
:1007600080349105A105B10561F427FD0AC0E114AB
:10077000F1040105110529F0205C3F4F4F4F5F4FF9
:1007800020782D873E874F87588BBE01675F7F4F4C
:10079000CB010E94A9056896EAE00C945A0FA8E1E3
:1007A000B0E0E5EDF3E00C94420F69837A838B832C
:1007B0009C832D833E834F83588789E0E82EF12C5C
:1007C000EC0EFD1ECE010196B7010E947E068E0141
:1007D0000F5E1F4FCE010596B8010E947E068985E7
:1007E000823040F08989823028F0C701B8010E9428
:1007F000F60601C08FEF6896E6E00C945E0FA8E164
:10080000B0E0E5E0F4E00C94420F69837A838B83D7
:100810009C832D833E834F83588789E0E82EF12CFB
:10082000EC0EFD1ECE010196B7010E947E068E01E0
:100830000F5E1F4FCE010596B8010E947E06898586
:10084000823040F08989823028F0C701B8010E94C7
:10085000F60601C081E06896E6E00C945E0FA8E021
:10086000B0E0E5E3F4E00C943F0F9B01AC0183E0C2
:100870008983DA01C9018827B7FD83959927AA27BB
:10088000BB27B82E211531054105510519F482E029
:1008900089833AC08823A9F0203080E0380780E0BF
:1008A000480780E8580729F460E070E080E09FEC9A
:1008B00030C0EE24FF248701E21AF30A040B150B63
:1008C00002C079018A018EE1C82ED12CDC82CB8254
:1008D000ED82FE820F831887C801B7010E945A0576
:1008E00001971816190684F4082E04C0EE0CFF1C9C
:1008F000001F111F0A94D2F7ED82FE820F83188722
:10090000C81AD90ADC82CB82BA82CE0101960E9433
:10091000A9052896E9E00C945B0FACE0B0E0E3E9B0
:10092000F4E00C94460F69837A838B839C83CE0119
:100930000196BE016B5F7F4F0E947E068D818230E3
:1009400061F1823050F1843021F48E81882351F19D
:100950002EC02F81388537FD20C06E812F313105A3
:100960001CF06623F9F023C08EE190E0821B930B0C
:1009700029853A854B855C8504C056954795379502
:1009800027958A95D2F76623B1F05095409530951A
:1009900021953F4F4F4F5F4F0EC020E030E040E0C9
:1009A00050E009C02FEF3FEF4FEF5FE704C020E0BA
:1009B00030E040E050E8B901CA012C96E2E00C9426
:1009C000620FA8E0B0E0E7EEF4E00C943E0F7B018C
:1009D0008C01611571058105910519F482E0898307
:1009E00060C083E089838EE1C82ED12CDC82CB826B
:1009F000ED82FE820F831887C801B7010E945A0555
:100A0000FC013197F7FF3BC0222733272E1B3F0BFA
:100A100057016801022E04C0D694C794B794A794D6
:100A20000A94D2F740E050E060E070E081E090E0AE
:100A3000A0E0B0E004C0880F991FAA1FBB1F2A9531
:100A4000D2F70197A109B1098E219F21A023B123DB
:100A50000097A105B10521F041E050E060E070E0B1
:100A60004A295B296C297D294D835E836F837887B2
:100A70008EE190E08E1B9F0B9C838B8312C030977E
:100A800081F00E2E04C0EE0CFF1C001F111F0A94F3
:100A9000D2F7ED82FE820F831887CE1ADF0ADC823E
:100AA000CB821A82CE0101960E94A9052896EAE01F
:100AB0000C945A0FEF92FF920F931F937B018C01BE
:100AC00080E0E81680E0F80681E0080780E018077B
:100AD00088F48FEFE816F1040105110531F028F0D4
:100AE00088E090E0A0E0B0E017C080E090E0A0E0F7
:100AF000B0E012C080E0E81680E0F80680E0080769
:100B000081E0180728F088E190E0A0E0B0E004C0A0
:100B100080E190E0A0E0B0E020E230E040E050E092
:100B2000281B390B4A0B5B0B04C016950795F794ED
:100B3000E7948A95D2F7F701EC5BFE4F8081281B82
:100B4000310941095109C9011F910F91FF90EF909F
:100B50000895DF92EF92FF920F931F93FC01E480C0
:100B6000F58006811781D1808081823048F480E051
:100B700090E0A0E1B0E0E82AF92A0A2B1B2BA5C0DF
:100B8000843009F49FC0823021F4EE24FF248701D1
:100B900005C0E114F1040105110519F4E0E0F0E0ED
:100BA00096C0628173819FEF623879070CF05BC059
:100BB00022E83FEF261B370B2A3131052CF020E0CD
:100BC00030E040E050E02AC0B801A701022E04C086
:100BD00076956795579547950A94D2F781E090E00E
:100BE000A0E0B0E004C0880F991FAA1FBB1F2A9580
:100BF000D2F70197A109B1098E219F21A023B1232A
:100C00000097A105B10521F081E090E0A0E0B0E0FF
:100C10009A01AB01282B392B4A2B5B2BDA01C90136
:100C20008F779070A070B07080349105A105B105E8
:100C300039F427FF09C0205C3F4F4F4F5F4F04C07E
:100C4000215C3F4F4F4F5F4FE0E0F0E02030A0E0ED
:100C50003A07A0E04A07A0E45A0710F0E1E0F0E00C
:100C600079018A0127C06038710564F5FB01E158FC
:100C7000FF4FD801C7018F779070A070B07080349B
:100C80009105A105B10539F4E7FE0DC080E490E0BF
:100C9000A0E0B0E004C08FE390E0A0E0B0E0E80E98
:100CA000F91E0A1F1B1F17FF05C016950795F7941D
:100CB000E794319687E016950795F794E7948A951F
:100CC000D1F705C0EE24FF248701EFEFF0E06E2F8F
:100CD000679566276795902F9F77D794DD24D794E3
:100CE0008E2F8695492F462B582F5D29B701CA01B3
:100CF0001F910F91FF90EF90DF900895FC01DB01B1
:100D0000408151812281622F6F7770E0221F22275C
:100D1000221F9381892F880F822B282F30E0991F63
:100D20009927991F11969C93119721153105A9F5C3
:100D3000411551056105710511F482E037C082E863
:100D40009FEF13969C938E9312979A01AB0167E0E5
:100D5000220F331F441F551F6A95D1F783E08C93F0
:100D60000DC0220F331F441F551F12968D919C9169
:100D70001397019713969C938E931297203080E0DF
:100D8000380780E0480780E4580758F314962D93FD
:100D90003D934D935C93179708952F3F310579F458
:100DA000411551056105710519F484E08C9308958E
:100DB00064FF03C081E08C9312C01C9210C02F57B7
:100DC000304013963C932E93129783E08C9387E0E8
:100DD000440F551F661F771F8A95D1F770641496CC
:100DE0004D935D936D937C93179708951F93DC014A
:100DF000FB019C91923008F447C08081823008F456
:100E000043C0943051F411961C91843099F581813E
:100E1000682F70E0611B71093FC0843021F092306F
:100E200031F48230B9F18181882389F12DC0119686
:100E30001C9111978230F1F081811817D9F4129624
:100E40002D913C911397828193818217930794F09F
:100E500028173907BCF014968D919D910D90BC9187
:100E6000A02D2481358146815781281739074A07EB
:100E70005B0718F4112341F00AC082179307A407F7
:100E8000B50740F4112319F061E070E005C06FEF81
:100E90007FEF02C060E070E0CB011F910895000079
:100EA0000000000000000000000000000000000042
:100EB00023E83FEFAC01429FC001439F900D529F3A
:100EC000900D112480959095880F991F9C014427BF
:100ED00037FD4095542F80E090E0A0E0B0E007C0DF
:100EE00000000000000000000196A11DB11D2817A0
:100EF00039074A075B07A4F70895000000000000C7
:100F00000000089500000000000000000000000044
:100F1000843050F0835090E003C0000000009F5FD9
:100F20009817D8F30000000008950F931F93CF93F4
:100F3000DF938C01C0E0D0E031C080E090E00000A1
:100F4000019624E08F379207D1F784E690E00E9463
:100F50004F0784E690E00E944F0784E690E00E94ED
:100F60004F0784E690E00E944F0784E690E00E94DD
:100F70004F0784E690E00E944F0784E690E00E94CD
:100F80004F0784E690E00E944F0784E690E00E94BD
:100F90004F0783E690E00E944F072196C017D107C4
:100FA00064F2DF91CF911F910F910895FC01808130
:100FB000863799F42381205D818134E6839FC001C7
:100FC0001124280F82813AE0839FC0011124280F49
:100FD0002093480280E091E074C08E36D1F5818183
:100FE0008233B9F4848190E0805D9441228144E6AB
:100FF000249F90011124820F931F23814AE0249F94
:1010000090011124820F931F90934A02809349020A
:1010100015C08133B1F4848190E0805D94412281D8
:1010200044E6249F90011124820F931F23814AE0FC
:10103000249F90011124820F0E94600D80E191E0B5
:1010400040C0833709F052C08281805380934D02A3
:10105000F5CF8737A9F41092600210926102809157
:1010600048028093630280914802809362028DE17E
:1010700091E00E940D0B809148020E94600D08953E
:10108000833779F4109263021092620280914802D1
:1010900080936002809148028093610285E291E032
:1010A00010C0813689F41092620210926002809121
:1010B00048028093630280914802809361028FE22C
:1010C00091E00E940D0B0895843681F41092620223
:1010D00010926002809148028093630280914802DE
:1010E0008093610285E391E00E940D0B0895569A6A
:1010F00084B5836884BDEEE6F0E080818160808302
:101100006091630270E0882777FD8095982F0E9498
:101110002F0420E030E048EC52E40E94230320E05A
:1011200030E04FE753E40E9429020E94530067BD5C
:1011300085B5856085BD0895559A84B5836284BD63
:10114000EEE6F0E08081816080836091600270E073
:10115000882777FD8095982F0E942F0420E030E0AB
:1011600048EC52E40E94230320E030E04FE753E4D0
:101170000E9429020E94530068BD85B5856085BD27
:101180000895539AE0EBF0E0808183628083E0E78A
:10119000F0E08081816080836091620270E0882746
:1011A00077FD8095982F0E942F0420E030E048ECD6
:1011B00052E40E94230320E030E04FE753E40E9412
:1011C00029020E9453006093B400E1EBF0E08081BB
:1011D000876080830895239AE0EBF0E08081836844
:1011E0008083E0E7F0E0808181608083609161022C
:1011F00070E0882777FD8095982F0E942F0420E0CB
:1012000030E048EC52E40E94230320E030E04FE756
:1012100053E40E9429020E9453006093B300E1EB63
:10122000F0E08081876080830895219AE0E8F0E013
:1012300080818268808383E080936F00809389003F
:1012400087EE809388008CE9809387008FE38093FA
:1012500086008AE1809381000895229AE0E8F0E018
:1012600080818262808383E080936F0080938B0013
:1012700087EE80938A008CE9809387008FE38093C8
:1012800086008AE18093810008950E9477080E9479
:101290009C080E94C1080E94EB080E9415090E9448
:1012A0002D090895AF92BF92CF92DF92EF92FF92F5
:1012B0000F931F937B01A0E0B0E0BC01CD010E9421
:1012C000E1045B016C0100E010E0C801B7010E947D
:1012D000E1049B01AC01C601B5010E94230320E09B
:1012E00030E04AE755E40E94290220E030EC49E76B
:1012F00054E40E94FC010E945300962F672F81E066
:1013000080934402809144028823E1F7609389002E
:10131000909388001F910F91FF90EF90DF90CF90F6
:10132000BF90AF900895AF92BF92CF92DF92EF92AD
:10133000FF920F931F937B01A0E0B0E0BC01CD01B1
:101340000E94E1045B016C0100E010E0C801B701FC
:101350000E94E1049B01AC01C601B5010E94230378
:1013600020E030E04AE755E40E94290220E030EC1A
:1013700049E754E40E94FC010E945300962F672F16
:1013800081E080934402809144028823E1F76093D6
:101390008B0090938A001F910F91FF90EF90DF9048
:1013A000CF90BF90AF9008951F920F920FB60F92FB
:1013B00011242F933F934F935F936F937F938F935A
:1013C0009F93AF93BF93EF93FF9380916302882322
:1013D00019F484B58F7702C084B5806884BD80918C
:1013E0006002882319F484B58F7D02C084B58062C1
:1013F00084BD6091630270E0882777FD8095982F07
:101400000E942F0420E030E048EC52E40E942303C5
:1014100020E030E04FE753E40E9429020E9453008D
:1014200067BD6091600270E0882777FD8095982FF6
:101430000E942F0420E030E048EC52E40E94230395
:1014400020E030E04FE753E40E9429020E9453005D
:1014500068BD80915C0290915D02A0915E02B091A6
:101460005F020196A11DB11D80935C0290935D0205
:10147000A0935E02B0935F02FF91EF91BF91AF9195
:101480009F918F917F916F915F914F913F912F919C
:101490000F900FBE0F901F9018951F920F920FB6CE
:1014A0000F921124109244020F900FBE0F901F90C4
:1014B00018951F920F920FB60F9211240F900FBE26
:1014C0000F901F9018951F920F920FB60F92112434
:1014D0002F933F934F935F936F937F938F939F933C
:1014E000AF93BF93EF93FF9380916202882321F41F
:1014F0008091B0008F7703C08091B00080688093A6
:10150000B00080916102882321F48091B0008F7D2A
:1015100003C08091B00080628093B000609162024D
:1015200070E0882777FD8095982F0E942F0420E097
:1015300030E048EC52E40E94230320E030E04FE723
:1015400053E40E9429020E9453006093B30060910B
:10155000610270E0882777FD8095982F0E942F0404
:1015600020E030E048EC52E40E94230320E030E029
:101570004FE753E40E9429020E9453006093B40095
:101580008091580290915902A0915A02B0915B0249
:101590000196A11DB11D8093580290935902A0930A
:1015A0005A02B0935B02FF91EF91BF91AF919F916F
:1015B0008F917F916F915F914F913F912F910F90FC
:1015C0000FBE0F901F9018951092C50080E1809378
:1015D000C40088E98093C1008EE08093C20080E05F
:1015E00090E020E3FC01EB59FD4F208301968A3007
:1015F0009105C1F710926F020895982F9F709A304D
:1016000018F4892F805D0895892F8A50863010F054
:101610008DE20895892F895C0895CF93DF93EC01C3
:1016200006C08093C60081E090E00E944F07899138
:101630008823B9F7DF91CF9108951F920F920FB6CB
:101640000F9211242F933F934F935F936F937F9348
:101650008F939F93AF93BF93EF93FF93E0914502D6
:10166000F09146028091C600EB59FD4F8083E091D6
:101670004502F0914602EB59FD4F80818A3031F0EE
:1016800080914502909146020A97D4F085E692E057
:101690000E94D60785E692E00E940D0B80E090E064
:1016A00020E3FC01EB59FD4F208301968A30910520
:1016B000C1F710926F02109246021092450209C0C3
:1016C0008091450290914602019690934602809344
:1016D0004502FF91EF91BF91AF919F918F917F91C3
:1016E0006F915F914F913F912F910F900FBE0F908F
:1016F0001F9018952F923F924F925F926F927F9218
:101700008F929F92AF92BF92CF92DF92EF92FF9211
:101710000F931F931B012C0120E030E040E050E0CC
:101720000E94CF0388230CF464C0C201B10120E001
:1017300030E040E251E40E94FF0388230CF059C0DE
:10174000C201B1010E9453005B016C0170E0882767
:1017500077FD8095982F0E942F049B01AC01C20158
:10176000B1010E94CB013B014C0120E030E040E29E
:1017700051E40E9429020E9453007B018C0180E306
:10178000A80EA092C60081E090E00E944F078AE375
:1017900091E00E940D0B80E3E80EE092C60080ED20
:1017A000E80E81E090E00E944F076E2D70E08827E0
:1017B00077FD8095982F0E942F0420E030E040E2D2
:1017C00051EC0E9423039B01AC01C401B3010E94B0
:1017D000FC0120E030E048EC52E40E9429020E9423
:1017E0005300605D6093C60081E090E00E944F0767
:1017F00056C1C201B10120E030E040E251E40E9454
:10180000CF0388230CF45CC0C201B10120E030E0BA
:1018100048EC52E40E94FF0388230CF051C0C2013F
:10182000B10120E030E040E251E40E9423030E9435
:1018300053005B016C016AE0A69EB0011124882769
:1018400077FD8095982F0E942F043B014C01C20127
:10185000B101A40193010E94CB010E9453007B01BE
:101860008C0180E3A80EA092C60081E090E00E9467
:101870004F0780E3E80EE092C60080EDE80E81E0BD
:1018800090E00E944F078AE391E00E940D0B6E2DBD
:1018900070E0882777FD8095982F0E942F049B0188
:1018A000AC01C201B1010E94CB01A40193010E94CD
:1018B000CB0120E030E040E251E40E942902EAC07E
:1018C000C201B10120E030E048EC52E40E94CF03B5
:1018D00088230CF454C0C201B10120E030E04AE793
:1018E00054E40E94FF0388230CF049C0C201B101F7
:1018F00020E030E048EC52E40E9423030E945300B1
:101900005B016C0164E6A69EB0011124882777FD77
:101910008095982F0E942F049B01AC01C201B10158
:101920000E94CB013B014C0120E030E040E251E459
:101930000E9423030E9453007B018C0180E3A80EC8
:10194000A092C60081E090E00E944F0780E3E80E7D
:10195000E092C60080EDE80E81E090E00E944F0723
:101960006AE0E69EB0011124882777FD8095982FC4
:101970000E942F049B01AC01C401B30189C0C201C4
:10198000B10120E030E04AE754E40E94CF0388230D
:101990000CF485C0C201B10120E030E44CE156E412
:1019A0000E94FF0388230CF07AC0C201B10120E03D
:1019B00030E04AE754E40E9423030E9453003B01B5
:1019C0004C01262F30E088EE93E0289FB001299F3C
:1019D000700D389F700D1124882777FD8095982F02
:1019E0000E942F049B01AC01C201B1010E94CB01F6
:1019F0007B018C0120E030E048EC52E40E9423039C
:101A00000E9453005B016C0164E6A69EB0011124A4
:101A1000882777FD8095982F0E942F049B01AC01A9
:101A2000C801B7010E94CB011B012C0120E030E06E
:101A300040E251E40E9423030E9453007B018C0189
:101A400080E3680E6092C60081E090E00E944F073C
:101A500080E3A80EA092C60081E090E00E944F07AC
:101A600080E3E80EE092C60080EDE80E81E090E0B1
:101A70000E944F076AE0E69EB0011124882777FD97
:101A80008095982F0E942F049B01AC01C201B101E7
:101A90000E94CB010E945300605D6093C6001F91BD
:101AA0000F91FF90EF90DF90CF90BF90AF909F90FD
:101AB0008F907F906F905F904F903F902F90089500
:101AC000EF92FF920F931F93CF93DF93082F8A30EB
:101AD00020F4005D0093C60057C0C82FD0E08A50A4
:101AE0008A35F0F4CE016AE070E00E940F0F8B019E
:101AF000862F805D8093C60081E090E00E944F07B2
:101B000086EF9FEF9C01029FC001039F900D129FE3
:101B1000900D11248C0F9D1F805D8093C60034C0F2
:101B2000043690F1CE0164E670E00E940F0F462F5C
:101B3000262F30E08CE99FEF289F7001299FF00C41
:101B4000389FF00C1124C7018C0F9D1F6AE070E0D4
:101B50000E940F0F162F405D4093C60081E090E079
:101B60000E944F07105D1093C600105381E090E073
:101B70000E944F07005D0E0D86EF9FEF189F102DFE
:101B80001124100F1093C600DF91CF911F910F9178
:101B9000FF90EF9008952F923F924F925F926F9235
:101BA0007F928F929F92AF92BF92CF92DF92EF92ED
:101BB000FF920F931F93DF93CF93CDB7DEB72A9792
:101BC0000FB6F894DEBF0FBECDBF7B018C016A87D4
:101BD000272E382E492E552447FC5A943C0199242F
:101BE00077FC9094892CA12EBB24CC24DD2480E3A7
:101BF000898388E78A838A2D82958F700E94FD0AE7
:101C00008B838A2D0E94FD0A8C83862D82958F708E
:101C10000E94FD0A8D83862D0E94FD0A8E83822DEF
:101C200082958F700E94FD0A8F83822D0E94FD0A8B
:101C300088878E2D82958F700E94FD0A89878E2D50
:101C40000E94FD0A8A878E010F5F1F4F8BE0E82EEE
:101C5000F12CEC0EFD1EF80181918F018093C600DE
:101C600081E090E00E944F070E151F05A1F72A960C
:101C70000FB6F894DEBF0FBECDBFCF91DF911F919D
:101C80000F91FF90EF90DF90CF90BF90AF909F901B
:101C90008F907F906F905F904F903F902F9008951E
:101CA000DF92EF92FF920F931F93DF93CF9300D0B9
:101CB00000D00F92CDB7DEB78C01E92EFF24E7FCF0
:101CC000FA9480E3898388E78A838E2D82958F70CA
:101CD0000E94FD0A8B838E2D0E94FD0A8C83802F2B
:101CE00082958F700E94FD0A8D83802F0E94FD0ACD
:101CF0008E838E010F5F1F4F47E0E42EF12CEC0E18
:101D0000FD1EF80181918F018093C60081E090E073
:101D10000E944F070E151F05A1F70F900F900F900F
:101D20000F900F90CF91DF911F910F91FF90EF9047
:101D3000DF900895EF92FF920F931F93DF93CF935D
:101D400000D00F92CDB7DEB7082F80E3898388E7F4
:101D50008A83802F0E94FD0A182F802F82958F7012
:101D60000E94FD0A8B831C838E010F5F1F4F65E06D
:101D7000E62EF12CEC0EFD1EF80181918F0180936F
:101D8000C60081E090E00E944F070E151F05A1F7E5
:101D90000F900F900F90CF91DF911F910F91FF90B7
:101DA000EF9008951F920F920FB60F9211248F9308
:101DB00081E0809347028F910F900FBE0F901F908C
:101DC00018950E94150980916900886080936900C8
:101DD000E99A789484EB90E064EB70E00E945209F9
:101DE00084E690E00E944F07809147028130C1F75E
:101DF00080E090E064EB70E00E94520984E090E0A3
:101E00000E94950784EB90E064EB70E00E94520919
:101E100083E090E00E94950710924702E1CF97FB84
:101E2000092E07260AD077FD04D00CD006D000205A
:101E30001AF4709561957F4F0895F6F79095819506
:101E40009F4F0895AA1BBB1B51E107C0AA1FBB1FD0
:101E5000A617B70710F0A61BB70B881F991F5A9536
:101E6000A9F780959095BC01CD0108952F923F92DE
:101E70004F925F926F927F928F929F92AF92BF929A
:101E8000CF92DF92EF92FF920F931F93CF93DF9346
:101E9000CDB7DEB7CA1BDB0B0FB6F894DEBF0FBEA3
:101EA000CDBF09942A88398848885F846E847D84F0
:101EB0008C849B84AA84B984C884DF80EE80FD80F2
:101EC0000C811B81AA81B981CE0FD11D0FB6F89468
:0E1ED000DEBF0FBECDBFED010895F894FFCF29
:101EDE0073706565647375636365737366756C00A3
:101EEE00736572766F7375636365737300666F7275
:101EFE0077617264006261636B7761726473007202
:101F0E0069676874006C656674002E00000000003E
:101F1E000000000000010202030303030404040492
:101F2E000404040405050505050505050505050557
:101F3E000505050506060606060606060606060637
:101F4E000606060606060606060606060606060623
:101F5E000606060607070707070707070707070707
:101F6E0007070707070707070707070707070707F3
:101F7E0007070707070707070707070707070707E3
:101F8E0007070707070707070707070707070707D3
:101F9E0007070707080808080808080808080808B7
:101FAE0008080808080808080808080808080808A3
:101FBE000808080808080808080808080808080893
:101FCE000808080808080808080808080808080883
:101FDE000808080808080808080808080808080873
:101FEE000808080808080808080808080808080863
:101FFE000808080808080808080808080808080853
:10200E000808080808080808080808080808080842
:04201E00080808089E
:00000001FF
