:100000000C9434000C9449000C9449000C94490061
:100010000C9449000C9449000C9449000C9449003C
:100020000C9449000C9449000C9449000C9449002C
:100030000C9449000C9449000C9449000C9449001C
:100040000C9449000C9449000C9449000C9449000C
:100050000C9449000C9449000C9449000C944900FC
:100060000C9449000C94490011241FBECFEFD8E036
:10007000DEBFCDBF11E0A0E0B1E0EEEDF0E002C0E8
:1000800005900D92A230B107D9F70E9468000C9438
:100090006D000C94000084B190910001892B84B90B
:1000A000292F209585B1892B85B985B1822385B902
:1000B000F9CF94B1982B94B995B1982B95B908952F
:1000C00094B1982B94B995B18095982395B90895DA
:0E00D0000E944B0080E090E00895F894FFCF6E
:0200DE00200000
:00000001FF
