:100000000C9434000C943E000C943E000C943E0082
:100010000C943E000C943E000C943E000C943E0068
:100020000C943E000C943E000C943E000C943E0058
:100030000C943E000C943E000C943E000C943E0048
:100040000C943E000C943E000C943E000C943E0038
:100050000C943E000C943E000C943E000C943E0028
:100060000C943E000C943E0011241FBECFEFD8E04C
:10007000DEBFCDBF0E945C000C945F000C940000BA
:10008000982F84B1892B84B9292F209585B1892B8C
:1000900085B985B1822385B9F9CF94B1982B94B9EC
:1000A00095B1982B95B9089594B1982B94B995B1C1
:1000B0008095982395B9089580E090E00895F8948C
:0200C000FFCF70
:00000001FF
