:100000000C9434000C94BF0A0C9451000C945100D1
:100010000C9451000C947C0A0C9451000C945100E7
:100020000C9451000C946B0E0C9451000C945B0ECC
:100030000C9451000C94490E0C9451000C945100F6
:100040000C94390E0C9451000C94A0140C94510093
:100050000C9451000C9451000C9451000C945100DC
:100060000C9451000C94510011241FBECFEFD8E026
:10007000DEBFCDBF12E0A0E0B1E0E0ECFBE202C0E9
:1000800005900D92AA31B107D9F712E0AAE1B2E0CA
:1000900001C01D92A434B107E1F70E940F150C9422
:1000A000DE150C940000EF92FF920F931F937B01DB
:1000B0008C0120E030E040E05FE40E94CF03882321
:1000C0008CF0C801B70120E030E040E05FE40E941E
:1000D000CB010E948D049B01AC0120503040404078
:1000E000504806C0C801B7010E948D049B01AC01B5
:1000F000B901CA011F910F91FF90EF900895A0E000
:10010000B0E0E5E8F0E00C94A715DC012B01FA0162
:100110009C91923008F439C1EB018881823008F457
:1001200033C1943069F4843009F02FC111969C9149
:1001300011978981981709F428C1A1E1B1E025C17F
:10014000843009F421C18230A9F4923009F01DC134
:100150009A01AD0188E0EA010990AE01E901099236
:100160009E018150C1F7E201898111969C918923FA
:10017000818308C1923009F407C112962D903C90FA
:100180001397EB018A819B811496AD90BD90CD9021
:10019000DC901797EC80FD800E811F819101281B58
:1001A000390BB90137FF04C066277727621B730B31
:1001B000603271050CF061C0121613066CF5370140
:1001C0004801062E04C096948794779467940A9405
:1001D000D2F721E030E040E050E004C0220F331FAE
:1001E000441F551F6A95D2F721503040404050407F
:1001F0002E213F2140235123211531054105510571
:1002000021F021E030E040E050E079018A01E62869
:10021000F728082919293CC0232BD1F1260E371EB7
:1002200035014601062E04C096948794779467940E
:100230000A94D2F721E030E040E050E004C0220F01
:10024000331F441F551F6A95D2F72150304040405C
:1002500050402A213B214C215D21211531054105CA
:10026000510521F021E030E040E050E059016A0101
:10027000A628B728C828D9280BC0821593052CF0CA
:100280001C01AA24BB24650103C0EE24FF248701BE
:1002900011969C91D20111968C91981709F445C042
:1002A000992339F0A80197012A193B094C095D09E6
:1002B00006C0A60195012E193F09400B510B57FDB1
:1002C00008C0118233822282248335834683578378
:1002D0001DC081E081833382228288279927DC0137
:1002E000821B930BA40BB50B84839583A683B783E2
:1002F0000DC0220F331F441F551F248335834683AF
:1003000057838281938101979383828324813581EE
:1003100046815781DA01C9010197A109B1098F5FAF
:100320009F4FAF4FBF4328F30BC09183338222828C
:10033000EA0CFB1C0C1D1D1DE482F582068317834D
:1003400083E08083248135814681578157FF1AC01D
:10035000C901AA2797FDA095BA2F81709070A0704F
:10036000B0705695479537952795822B932BA42BE4
:10037000B52B84839583A683B7838281938101966D
:1003800093838283DF0101C0D201CD01CDB7DEB7F7
:10039000E2E10C94C315A0E2B0E0E1EDF1E00C94D1
:1003A000B31569837A838B839C832D833E834F832C
:1003B0005887E9E0EE2EF12CEC0EFD1ECE010196E1
:1003C000B7010E947E068E010F5E1F4FCE0105967B
:1003D000B8010E947E068A8991E089278A8BC7012D
:1003E000B801AE01475E5F4F0E947F000E94A905E1
:1003F000A096E6E00C94CF15A0E2B0E0E2E0F2E0D7
:100400000C94B31569837A838B839C832D833E83FD
:100410004F835887F9E0EF2EF12CEC0EFD1ECE0134
:100420000196B7010E947E068E010F5E1F4FCE011E
:100430000596B8010E947E06C701B801AE01475E6D
:100440005F4F0E947F000E94A905A096E6E00C94F1
:10045000CF15A0E2B0E0EFE2F2E00C94A7156983BB
:100460007A838B839C832D833E834F835887CE0171
:100470000196BE01675F7F4F0E947E06CE01059602
:10048000BE016F5E7F4F0E947E069985923088F094
:1004900089898230C8F0943019F4823051F404C054
:1004A000843029F4923081F481E191E0C6C0923029
:1004B00049F420E09A858A89981321E02A87CE01A1
:1004C0000996BBC0823049F420E09A858A89981346
:1004D00021E02A8BCE014196B0C02D843E844F840A
:1004E00058886D887E888F88988CEE24FF24870139
:1004F000AA24BB24650140E050E060E070E0E0E049
:10050000F0E0C10181709070892BE9F0E60CF71CD6
:10051000081D191D9A01AB012A0D3B1D4C1D5D1DC7
:1005200080E090E0A0E0B0E0E614F70408051905CB
:1005300020F481E090E0A0E0B0E0BA01A901480F0A
:10054000591F6A1F7B1FAA0CBB1CCC1CDD1C97FE0D
:1005500008C081E090E0A0E0B0E0A82AB92ACA2A49
:10056000DB2A3196E032F10549F0660C771C881CD5
:10057000991C5694479437942794C3CFFA85EA89F7
:100580002B893C898B859C85280F391F2E5F3F4F17
:1005900017C0CA0181709070892B61F0169507957C
:1005A000F794E79480E090E0A0E0B0E8E82AF92A28
:1005B0000A2B1B2B76956795579547952F5F3F4FD5
:1005C00077FDE7CF0CC0440F551F661F771F17FD3F
:1005D0004160EE0CFF1C001F111F215030404030C5
:1005E00090E0590790E0690790E4790760F32B8F5A
:1005F0003C8FDB01CA018F779070A070B07080349F
:100600009105A105B10561F447FD0AC0E114F104AB
:100610000105110529F0405C5F4F6F4F7F4F407817
:100620001A8EFE1711F081E08A8F4D8F5E8F6F8FCB
:1006300078A383E0898FCE0149960E94A905A096F0
:10064000E2E10C94C315A8E1B0E0E9E2F3E00C9418
:10065000AF1569837A838B839C832D833E834F837D
:100660005887B9E0EB2EF12CEC0EFD1ECE01019661
:10067000B7010E947E068E010F5E1F4FCE010596C8
:10068000B8010E947E062985223008F47EC039898F
:10069000323010F4B8017CC08A859A8989278A870C
:1006A000243011F0223031F4231709F06EC061E1DB
:1006B00071E06EC0343039F41D861E861F86188A9C
:1006C0001C861B8604C0323021F484E08987B70180
:1006D0005FC02B853C858B899C89281B390B3C8707
:1006E0002B87ED84FE840F851889AD88BE88CF885E
:1006F000D88CEA14FB040C051D0540F4EE0CFF1C1D
:10070000001F111F215030403C872B8720E030E034
:1007100040E050E080E090E0A0E0B0E460E070E015
:10072000EA14FB040C051D0540F0282B392B4A2B3D
:100730005B2BEA18FB080C091D09B695A795979540
:100740008795EE0CFF1C001F111F6F5F7F4F6F31ED
:10075000710531F7DA01C9018F779070A070B07020
:1007600080349105A105B10561F427FD0AC0E114AB
:10077000F1040105110529F0205C3F4F4F4F5F4FF9
:1007800020782D873E874F87588BBE01675F7F4F4C
:10079000CB010E94A9056896EAE00C94CB15A8E16C
:1007A000B0E0E5EDF3E00C94B31569837A838B83B5
:1007B0009C832D833E834F83588789E0E82EF12C5C
:1007C000EC0EFD1ECE010196B7010E947E068E0141
:1007D0000F5E1F4FCE010596B8010E947E068985E7
:1007E000823040F08989823028F0C701B8010E9428
:1007F000F60601C08FEF6896E6E00C94CF15A8E1ED
:10080000B0E0E5E0F4E00C94B31569837A838B8360
:100810009C832D833E834F83588789E0E82EF12CFB
:10082000EC0EFD1ECE010196B7010E947E068E01E0
:100830000F5E1F4FCE010596B8010E947E06898586
:10084000823040F08989823028F0C701B8010E94C7
:10085000F60601C081E06896E6E00C94CF15A8E0AA
:10086000B0E0E5E3F4E00C94B0159B01AC0183E04B
:100870008983DA01C9018827B7FD83959927AA27BB
:10088000BB27B82E211531054105510519F482E029
:1008900089833AC08823A9F0203080E0380780E0BF
:1008A000480780E8580729F460E070E080E09FEC9A
:1008B00030C0EE24FF248701E21AF30A040B150B63
:1008C00002C079018A018EE1C82ED12CDC82CB8254
:1008D000ED82FE820F831887C801B7010E945A0576
:1008E00001971816190684F4082E04C0EE0CFF1C9C
:1008F000001F111F0A94D2F7ED82FE820F83188722
:10090000C81AD90ADC82CB82BA82CE0101960E9433
:10091000A9052896E9E00C94CC15ACE0B0E0E3E939
:10092000F4E00C94B71569837A838B839C83CE01A2
:100930000196BE016B5F7F4F0E947E068D818230E3
:1009400061F1823050F1843021F48E81882351F19D
:100950002EC02F81388537FD20C06E812F313105A3
:100960001CF06623F9F023C08EE190E0821B930B0C
:1009700029853A854B855C8504C056954795379502
:1009800027958A95D2F76623B1F05095409530951A
:1009900021953F4F4F4F5F4F0EC020E030E040E0C9
:1009A00050E009C02FEF3FEF4FEF5FE704C020E0BA
:1009B00030E040E050E8B901CA012C96E2E00C9426
:1009C000D315A8E0B0E0E7EEF4E00C94AF157B019E
:1009D0008C01611571058105910519F482E0898307
:1009E00060C083E089838EE1C82ED12CDC82CB826B
:1009F000ED82FE820F831887C801B7010E945A0555
:100A0000FC013197F7FF3BC0222733272E1B3F0BFA
:100A100057016801022E04C0D694C794B794A794D6
:100A20000A94D2F740E050E060E070E081E090E0AE
:100A3000A0E0B0E004C0880F991FAA1FBB1F2A9531
:100A4000D2F70197A109B1098E219F21A023B123DB
:100A50000097A105B10521F041E050E060E070E0B1
:100A60004A295B296C297D294D835E836F837887B2
:100A70008EE190E08E1B9F0B9C838B8312C030977E
:100A800081F00E2E04C0EE0CFF1C001F111F0A94F3
:100A9000D2F7ED82FE820F831887CE1ADF0ADC823E
:100AA000CB821A82CE0101960E94A9052896EAE01F
:100AB0000C94CB15EF92FF920F931F937B018C0147
:100AC00080E0E81680E0F80681E0080780E018077B
:100AD00088F48FEFE816F1040105110531F028F0D4
:100AE00088E090E0A0E0B0E017C080E090E0A0E0F7
:100AF000B0E012C080E0E81680E0F80680E0080769
:100B000081E0180728F088E190E0A0E0B0E004C0A0
:100B100080E190E0A0E0B0E020E230E040E050E092
:100B2000281B390B4A0B5B0B04C016950795F794ED
:100B3000E7948A95D2F7F701E75EFE4F8081281B84
:100B4000310941095109C9011F910F91FF90EF909F
:100B50000895DF92EF92FF920F931F93FC01E480C0
:100B6000F58006811781D1808081823048F480E051
:100B700090E0A0E1B0E0E82AF92A0A2B1B2BA5C0DF
:100B8000843009F49FC0823021F4EE24FF248701D1
:100B900005C0E114F1040105110519F4E0E0F0E0ED
:100BA00096C0628173819FEF623879070CF05BC059
:100BB00022E83FEF261B370B2A3131052CF020E0CD
:100BC00030E040E050E02AC0B801A701022E04C086
:100BD00076956795579547950A94D2F781E090E00E
:100BE000A0E0B0E004C0880F991FAA1FBB1F2A9580
:100BF000D2F70197A109B1098E219F21A023B1232A
:100C00000097A105B10521F081E090E0A0E0B0E0FF
:100C10009A01AB01282B392B4A2B5B2BDA01C90136
:100C20008F779070A070B07080349105A105B105E8
:100C300039F427FF09C0205C3F4F4F4F5F4F04C07E
:100C4000215C3F4F4F4F5F4FE0E0F0E02030A0E0ED
:100C50003A07A0E04A07A0E45A0710F0E1E0F0E00C
:100C600079018A0127C06038710564F5FB01E158FC
:100C7000FF4FD801C7018F779070A070B07080349B
:100C80009105A105B10539F4E7FE0DC080E490E0BF
:100C9000A0E0B0E004C08FE390E0A0E0B0E0E80E98
:100CA000F91E0A1F1B1F17FF05C016950795F7941D
:100CB000E794319687E016950795F794E7948A951F
:100CC000D1F705C0EE24FF248701EFEFF0E06E2F8F
:100CD000679566276795902F9F77D794DD24D794E3
:100CE0008E2F8695492F462B582F5D29B701CA01B3
:100CF0001F910F91FF90EF90DF900895FC01DB01B1
:100D0000408151812281622F6F7770E0221F22275C
:100D1000221F9381892F880F822B282F30E0991F63
:100D20009927991F11969C93119721153105A9F5C3
:100D3000411551056105710511F482E037C082E863
:100D40009FEF13969C938E9312979A01AB0167E0E5
:100D5000220F331F441F551F6A95D1F783E08C93F0
:100D60000DC0220F331F441F551F12968D919C9169
:100D70001397019713969C938E931297203080E0DF
:100D8000380780E0480780E4580758F314962D93FD
:100D90003D934D935C93179708952F3F310579F458
:100DA000411551056105710519F484E08C9308958E
:100DB00064FF03C081E08C9312C01C9210C02F57B7
:100DC000304013963C932E93129783E08C9387E0E8
:100DD000440F551F661F771F8A95D1F770641496CC
:100DE0004D935D936D937C93179708951F93DC014A
:100DF000FB019C91923008F447C08081823008F456
:100E000043C0943051F411961C91843099F581813E
:100E1000682F70E0611B71093FC0843021F092306F
:100E200031F48230B9F18181882389F12DC0119686
:100E30001C9111978230F1F081811817D9F4129624
:100E40002D913C911397828193818217930794F09F
:100E500028173907BCF014968D919D910D90BC9187
:100E6000A02D2481358146815781281739074A07EB
:100E70005B0718F4112341F00AC082179307A407F7
:100E8000B50740F4112319F061E070E005C06FEF81
:100E90007FEF02C060E070E0CB011F910895DF9307
:100EA000CF93CDB7DEB72A970FB6F894DEBF0FBE4B
:100EB000CDBF9A8789870000000000000000000075
:100EC000000000000000000029853A8583E89FEFBC
:100ED000AC01249FC001259F900D349F900D1124DB
:100EE00080959095880F991FAA2797FDA095BA2FF6
:100EF0008D839E83AF83B88719821A821B821C82DE
:100F00000DC00E94A40789819A81AB81BC810196A2
:100F1000A11DB11D89839A83AB83BC8329813A814A
:100F20004B815C818D819E81AF81B885821793074B
:100F3000A407B50734F72A960FB6F894DEBF0FBEA4
:100F4000CDBFCF91DF910895DF93CF93CDB7DEB7BB
:100F50000000000000000000CF91DF910895DF93B2
:100F6000CF9300D0CDB7DEB78A8300000000000029
:100F70000000000000008A81843080F08A81835064
:100F80008A83198205C00000000089818F5F8983F0
:100F900099818A819817B8F3000000000F900F9094
:100FA000CF91DF910895DF93CF9300D000D000D090
:100FB000CDB7DEB79E838D831C821B823CC01A8214
:100FC000198206C0000089819A8101969A838983DB
:100FD00089819A8124E08F379207A4F384E690E018
:100FE0000E944F0784E690E00E944F0784E690E05D
:100FF0000E944F0784E690E00E944F0784E690E04D
:101000000E944F0784E690E00E944F0784E690E03C
:101010000E944F0784E690E00E944F0784E690E02C
:101020000E944F0783E690E00E944F078B819C81CE
:1010300001969C838B832B813C818D819E81281717
:1010400039070CF4BCCF26960FB6F894DEBF0FBE5E
:10105000CDBFCF91DF910895DF93CF9300D0CDB76F
:10106000DEB79A838983E981FA818081863709F026
:10107000B1C089819A81FC0132968081803348F425
:1010800089819A81FC0131968081805380931C0272
:101090005BC089819A81FC01339680818033E0F4C2
:1010A00089819A81FC0131968081882F90E09C0192
:1010B000220F331FC901880F991F880F991F820FB4
:1010C000931F282F89819A81FC0132968081820F9B
:1010D000805180931C0238C089819A81FC0131962D
:1010E0008081803319F410921C022EC089819A816C
:1010F000FC0131968081282F30E084E690E0AC013D
:10110000249FC001259F900D349F900D1124482FDE
:1011100089819A81FC0132968081882F90E09C0120
:10112000220F331FC901880F991F880F991F820F43
:10113000931F242F280F89819A81FC013396808187
:10114000820F805D80931C0280911C02882F90E0AA
:10115000AA2797FDA095BA2FBC01CD010E942F04AC
:10116000DC01CB01BC01CD0120E030E048EC52E4D1
:101170000E942303DC01CB01BC01CD0120E030E063
:101180004FE753E40E942902DC01CB01BC01CD01F1
:101190000E945300DC01CB0180931C0280911C0251
:1011A000882319F40E942A0E50C1E7E4F0E08091F0
:1011B0001C028083E8E4F0E080911C028083E3EB72
:1011C000F0E080911C028083E4EBF0E080911C024F
:1011D00080833BC1E981FA8180818E3609F0A7C006
:1011E00089819A81FC0131968081823309F03FC068
:1011F00089819A81FC0132968081282F30E084E633
:1012000090E0AC01249FC001259F900D349F900D6C
:101210001124AC01405C524189819A81FC013396D2
:101220008081882F90E09C01220F331FC901880F15
:10123000991F880F991F820F931F805E91409A011A
:10124000280F391F89819A81FC0134968081882F6B
:1012500090E0C097820F931F90931E0280931D020F
:1012600080911D0290911E020E941410EEC089818F
:101270009A81FC0131968081813309F043C08981D4
:101280009A81FC0132968081282F30E084E690E03C
:10129000AC01249FC001259F900D349F900D112417
:1012A000AC01405C524189819A81FC013396808176
:1012B000882F90E09C01220F331FC901880F991FCE
:1012C000880F991F820F931F805E91409A01280F0B
:1012D000391F89819A81FC0134968081882F90E0A2
:1012E000C097820F931F9093200280931F028091DA
:1012F0001F02909120020E94141080E091E00E9451
:101300007014A3C089819A81FC0131968081833752
:1013100009F09BC089819A81FC01329680818053BB
:101320008093210280E091E00E9470148EC0E981D8
:10133000FA818081873749F40E94C80D0E94E40D2C
:101340000E94F20D0E940E0E80C0E981FA81808118
:10135000833749F40E94BA0D0E94D60D0E94000EF8
:101360000E941C0E72C0E981FA818081813649F4A5
:101370000E94D60D0E94C80D0E94F20D0E941C0E04
:1013800064C0E981FA818081843649F40E94BA0DF3
:101390000E94E40D0E94000E0E940E0E56C0E981CC
:1013A000FA818081803709F050C0809126020E9426
:1013B00014108DE091E00E947014809127029091AA
:1013C0002802A0912902B0912A02BC01CD010E94FD
:1013D0002F04DC01CB01BC01CD012CE53FE842E844
:1013E0005CE30E942902DC01CB01BC01CD010E941B
:1013F000CB108DE091E00E94701480912B020E942E
:1014000014108DE091E00E9470148091220290915E
:101410002302A0912402B0912502BC01CD010E94BB
:101420002F04DC01CB01BC01CD012CE53FE842E8F3
:101430005CE30E942902DC01CB01BC01CD010E94CA
:10144000CB108DE091E00E9470140F900F90CF911F
:10145000DF910895DF93CF93CDB7DEB710922C02C2
:1014600010922D0210922E0210922F0210921A0248
:10147000A0E7B0E0E0E7F0E0808181608C93E1EBF1
:10148000F0E081E08083A8E6B0E0E8E6F0E080816B
:1014900084608C93ADE6B0E0EDE6F0E080818061A1
:1014A0008C93CF91DF910895DF93CF93CDB7DEB7C3
:1014B00010923002109231021092320210923302D6
:1014C000A0E7B0E0E0E7F0E0808181608C93E1EBA1
:1014D000F0E081E08083A9E6B0E0E9E6F0E0808119
:1014E00083608C93ADE3B0E0EDE3F0E08081816058
:1014F0008C93CF91DF9108951F920F920FB60F92A8
:1015000011248F939F93AF93BF93EF93FF93DF9338
:10151000CF93CDB7DEB7E9E2F0E08081882F90E08D
:1015200080719070009731F0E3E2F0E0808181708B
:10153000809326028091300290913102A091320274
:10154000B09133028093270290932802A09329023E
:10155000B0932A021092300210923102109232029D
:1015600010923302CF91DF91FF91EF91BF91AF9134
:101570009F918F910F900FBE0F901F9018951F9203
:101580000F920FB60F9211248F939F93AF93BF9337
:10159000EF93FF93DF93CF93CDB7DEB7E9E2F0E0AF
:1015A0008081881F8827881F80932B0280913002BA
:1015B00090913102A0913202B091330280932202C5
:1015C00090932302A0932402B0932502109230023C
:1015D000109231021092320210923302CF91DF91B9
:1015E000FF91EF91BF91AF919F918F910F900FBE9F
:1015F0000F901F901895DF93CF93CDB7DEB70E9461
:10160000100B0E94630B0E94B60B0E94060C0E94F6
:10161000560C0E94830C0E942A0ECF91DF910895F0
:101620000F931F93DF93CF93CDB7DEB7AAE2B0E05D
:10163000EAE2F0E0808180648C93A4E4B0E0E4E42A
:10164000F0E0808183688C93AEE6B0E0EEE6F0E0F7
:10165000808181608C9307E410E080913702882FAD
:1016600090E0AA2797FDA095BA2FBC01CD010E945A
:101670002F04DC01CB01BC01CD0120E030E048ECBF
:1016800052E40E942303DC01CB01BC01CD0120E028
:1016900030E04FE753E40E942902DC01CB01BC019A
:1016A000CD010E945300DC01CB01F8018083A5E449
:1016B000B0E0E5E4F0E0808181608C93CF91DF9130
:1016C0001F910F9108950F931F93DF93CF93CDB781
:1016D000DEB7AAE2B0E0EAE2F0E0808180628C93BB
:1016E000A4E4B0E0E4E4F0E0808183628C93AEE6B1
:1016F000B0E0EEE6F0E0808181608C9308E410E0D9
:1017000080913402882F90E0AA2797FDA095BA2FE8
:10171000BC01CD010E942F04DC01CB01BC01CD0135
:1017200020E030E048EC52E40E942303DC01CB01CE
:10173000BC01CD0120E030E04FE753E40E942902D4
:10174000DC01CB01BC01CD010E945300DC01CB01C7
:10175000F8018083A5E4B0E0E5E4F0E080818160F9
:101760008C93CF91DF911F910F9108950F931F9349
:10177000DF93CF93CDB7DEB7AAE2B0E0EAE2F0E0C4
:10178000808188608C93A0EBB0E0E0EBF0E080819A
:1017900083628C93A0E7B0E0E0E7F0E080818160B5
:1017A0008C9304EB10E080913602882F90E0AA27FA
:1017B00097FDA095BA2FBC01CD010E942F04DC013A
:1017C000CB01BC01CD0120E030E048EC52E40E94A6
:1017D0002303DC01CB01BC01CD0120E030E04FE769
:1017E00053E40E942902DC01CB01BC01CD010E941F
:1017F0005300DC01CB01F8018083E1EBF0E081E0F4
:101800008083CF91DF911F910F9108950F931F93C4
:10181000DF93CF93CDB7DEB7A4E2B0E0E4E2F0E02F
:10182000808188608C93A0EBB0E0E0EBF0E08081F9
:1018300083688C93A0E7B0E0E0E7F0E0808181600E
:101840008C9303EB10E080913502882F90E0AA275B
:1018500097FDA095BA2FBC01CD010E942F04DC0199
:10186000CB01BC01CD0120E030E048EC52E40E9405
:101870002303DC01CB01BC01CD0120E030E04FE7C8
:1018800053E40E942902DC01CB01BC01CD010E947E
:101890005300DC01CB01F8018083E1EBF0E081E053
:1018A0008083CF91DF911F910F910895DF93CF93A4
:1018B000CDB7DEB7A4E2B0E0E4E2F0E08081826080
:1018C0008C93A0E8B0E0E0E8F0E0808182688C933F
:1018D000EFE6F0E083E08083E9E8F0E083E08083F6
:1018E000E8E8F0E087EE8083E7E8F0E08CE98083C9
:1018F000E6E8F0E08FE38083E1E8F0E08AE18083CE
:10190000CF91DF910895DF93CF93CDB7DEB7A4E2F7
:10191000B0E0E4E2F0E0808184608C93A0E8B0E085
:10192000E0E8F0E0808182628C93EFE6F0E083E013
:101930008083EBE8F0E083E08083EAE8F0E087EE84
:101940008083E7E8F0E08CE98083E6E8F0E08FE36D
:101950008083E1E8F0E08AE18083CF91DF91089510
:10196000DF93CF9300D0CDB7DEB79A83898381E030
:1019700080931B0280911B028823E1F7E9E8F0E0E5
:1019800089819A81892F99278083E8E8F0E089810D
:1019900080830F900F90CF91DF910895DF93CF93C5
:1019A00000D0CDB7DEB79A83898381E080931B0294
:1019B00080911B028823E1F7EBE8F0E089819A81AE
:1019C000892F99278083EAE8F0E0898180830F904E
:1019D0000F90CF91DF910895EF92FF920F931F9395
:1019E000DF93CF93CDB7DEB72A970FB6F894DEBF5B
:1019F0000FBECDBF98878F837A8769878F8198853F
:101A0000CC01A0E0B0E0BC01CD010E94E1047B016B
:101A10008C0189859A85CC01A0E0B0E0BC01CD01A4
:101A20000E94E1049B01AC01C801B7010E9423039D
:101A3000DC01CB018B839C83AD83BE836B817C8176
:101A40008D819E8120E030E04AE755E40E94290222
:101A5000DC01CB01BC01CD0120E030EC49E754E4CE
:101A60000E94FC01DC01CB018B839C83AD83BE8390
:101A70006B817C818D819E810E945300DC01CB01B2
:101A80009A83898389819A810E94B00C2A960FB625
:101A9000F894DEBF0FBECDBFCF91DF911F910F91A4
:101AA000FF90EF900895EF92FF920F931F93DF93B3
:101AB000CF93CDB7DEB72A970FB6F894DEBF0FBE2F
:101AC000CDBF98878F837A8769878F819885CC016E
:101AD000A0E0B0E0BC01CD010E94E1047B018C01DB
:101AE00089859A85CC01A0E0B0E0BC01CD010E94BF
:101AF000E1049B01AC01C801B7010E942303DC0192
:101B0000CB018B839C83AD83BE836B817C818D8174
:101B10009E8120E030E04AE755E40E942902DC0182
:101B2000CB01BC01CD0120E030EC49E754E40E9438
:101B3000FC01DC01CB018B839C83AD83BE836B8175
:101B40007C818D819E810E945300DC01CB019A83B0
:101B5000898389819A810E94CE0C2A960FB6F894C7
:101B6000DEBF0FBECDBFCF91DF911F910F91FF90D0
:101B7000EF900895DF93CF93CDB7DEB7A4E4B0E044
:101B8000E4E4F0E080818F778C93CF91DF9108952A
:101B9000DF93CF93CDB7DEB7A4E4B0E0E4E4F0E0A8
:101BA00080818F7D8C93CF91DF910895DF93CF93C8
:101BB000CDB7DEB7A0EBB0E0E0EBF0E080818F774F
:101BC0008C93CF91DF910895DF93CF93CDB7DEB79C
:101BD000A0EBB0E0E0EBF0E080818F7D8C93CF91C3
:101BE000DF910895DF93CF93CDB7DEB7A4E4B0E0E3
:101BF000E4E4F0E0808180688C93CF91DF910895D8
:101C0000DF93CF93CDB7DEB7A4E4B0E0E4E4F0E037
:101C1000808180628C93CF91DF910895DF93CF9381
:101C2000CDB7DEB7A0EBB0E0E0EBF0E080818068FC
:101C30008C93CF91DF910895DF93CF93CDB7DEB72B
:101C4000A0EBB0E0E0EBF0E0808180628C93CF917C
:101C5000DF910895DF93CF93CDB7DEB70E94BA0D21
:101C60000E94C80D0E94D60D0E94E40DCF91DF9115
:101C700008951F920F920FB60F921124DF93CF9306
:101C8000CDB7DEB7CF91DF910F900FBE0F901F90B1
:101C900018951F920F920FB60F921124DF93CF93D6
:101CA000CDB7DEB710921B02CF91DF910F900FBE20
:101CB0000F901F9018951F920F920FB60F9211243C
:101CC000DF93CF93CDB7DEB7CF91DF910F900FBEEB
:101CD0000F901F9018951F920F920FB60F9211241C
:101CE0008F939F93AF93BF93DF93CF93CDB7DEB71F
:101CF00080912C0290912D02A0912E02B0912F0282
:101D00000196A11DB11D80932C0290932D02A093EA
:101D10002E02B0932F028091300290913102A09157
:101D20003202B09133020196A11DB11D80933002A1
:101D300090933102A0933202B0933302CF91DF919E
:101D4000BF91AF919F918F910F900FBE0F901F90F9
:101D50001895DF93CF9300D0CDB7DEB7E5ECF0E078
:101D60001082E4ECF0E080E18083E1ECF0E088E9CF
:101D70008083E2ECF0E08EE080831A8219820CC04E
:101D800089819A81FC01E65CFD4F80E38083898133
:101D90009A8101969A83898389819A818A309105F3
:101DA0007CF3109244020F900F90CF91DF91089531
:101DB000DF93CF9300D0CDB7DEB7898389818F7051
:101DC000898389818A3028F48981982F905D9A834C
:101DD0000DC089818A3040F08981803128F4898161
:101DE000982F995C9A8302C08DE28A838A810F9032
:101DF0000F90CF91DF910895DF93CF93CDB7DEB7EA
:101E000029970FB6F894DEBF0FBECDBF898780E358
:101E10008E8388E78F8389850E94D80E8D8389857C
:101E200082958F700E94D80E8C838C8188878D81DB
:101E300089871B821A8216C02A813B81CE010696B1
:101E4000FC01E20FF31F80818983E6ECF0E08981D9
:101E5000808381E090E00E944F078A819B810196F8
:101E60009B838A838A819B81843091052CF32996F8
:101E70000FB6F894DEBF0FBECDBFCF91DF910895AE
:101E8000DF93CF93CDB7DEB72C970FB6F894DEBFB4
:101E90000FBECDBF9C878B878B859C85892F990F23
:101EA000990B8D838B858C8380E38E8388E78F836A
:101EB0008D8182958F700E94D80E88878D810E94B7
:101EC000D80E89878C8182958F700E94D80E8A8760
:101ED0008C810E94D80E8B871B821A8216C02A81A1
:101EE0003B81CE010696FC01E20FF31F80818983BE
:101EF000E6ECF0E08981808381E090E00E944F076A
:101F00008A819B8101969B838A838A819B8186300B
:101F100091052CF32C960FB6F894DEBF0FBECDBF03
:101F2000CF91DF910895DF93CF93CDB7DEB764975C
:101F30000FB6F894DEBF0FBECDBF698B7A8B8B8B4B
:101F40009C8B89898F8389899A89AB89BC89892FE0
:101F50009A2FAB2FBB27A7FDBA958E8389899A89C3
:101F6000AB89BC89CD01BB2797FDB095AB2F8D8385
:101F700089899A89AB89BC898B2F9927AA27BB2786
:101F80008C8380E3888788E789878C8182958F702E
:101F90000E94D80E8A878C810E94D80E8B878D81F3
:101FA00082958F700E94D80E8C878D810E94D80EEA
:101FB0008D878E8182958F700E94D80E8E878E813C
:101FC0000E94D80E8F878F8182958F700E94D80EC5
:101FD000888B8F810E94D80E898B1B821A8216C033
:101FE0002A813B81CE010896FC01E20FF31F80811C
:101FF0008983E6ECF0E08981808381E090E00E94B3
:102000004F078A819B8101969B838A838A819B816A
:102010008A3091052CF364960FB6F894DEBF0FBE9C
:10202000CDBFCF91DF910895DF93CF93CDB7DEB7CA
:102030002B970FB6F894DEBF0FBECDBF8B878B8575
:10204000882F90E09A8789878B858A3040F48B852A
:10205000805D8887E6ECF0E08885808393C08B857F
:102060008A3088F18B85843670F589859A852AE0D7
:1020700030E0B9010E948015CB019F838E838E8151
:102080009F819C01220F331FC901880F991F880F60
:10209000991F820F931F909581959F4F29853A85AF
:1020A000820F931F9D838C83E6ECF0E08E81805D30
:1020B000808381E090E00E944F07E6ECF0E08C81A5
:1020C000805D80835FC08B85843608F45BC0898522
:1020D0009A8524E630E0B9010E948015CB018B83FC
:1020E0008B81282F30E08CE99FEFA901489F900158
:1020F000499F300D589F300D112489859A85820F94
:10210000931F2AE030E0B9010E948015CB018A8339
:102110008A81882F90E09C01220F331FC901880F0C
:10212000991F880F991F820F931F909581959F4F3C
:10213000482F8B81282F30E08CE99FEFBC01269F30
:10214000C001279F900D369F900D1124942F980F5A
:102150008B85890F8983E6ECF0E08B81805D80833D
:1021600081E090E00E944F07E6ECF0E08A81805D1C
:10217000808381E090E00E944F07E6ECF0E08981E7
:10218000805D80832B960FB6F894DEBF0FBECDBF67
:10219000CF91DF910895EF92FF920F931F93DF93FA
:1021A000CF93CDB7DEB768970FB6F894DEBF0FBEFA
:1021B000CDBF6F87788B898B9A8B188E6F857889C6
:1021C00089899A8920E030E040E050E00E94CF0306
:1021D000882314F041E0488F81E0588D85278823BB
:1021E00009F0B1C01F8A6F85788989899A8920E0B2
:1021F00030E040E251E40E94FF03882314F481E0C0
:102200008F8B81E09F898927882309F09CC06F8587
:10221000788989899A890E945300DC01CB018D87D6
:102220008D85882F90E0AA2797FDA095BA2FBC0135
:10223000CD010E942F049B01AC016F8578898989AB
:102240009A890E94CB01DC01CB01BC01CD0120E0C9
:1022500030E040E251E40E942902DC01CB01BC01E4
:10226000CD010E945300DC01CB018C878D85882F26
:1022700090E0AA2797FDA095BA2FBC01CD010E943E
:102280002F049B01AC016F85788989899A890E9406
:10229000CB01DC01CB017C018D018C85882F90E086
:1022A000AA2797FDA095BA2FBC01CD010E942F044B
:1022B000DC01CB01BC01CD0120E030E040E251EC7B
:1022C0000E942303DC01CB019C01AD01C801B701D1
:1022D0000E94FC01DC01CB01BC01CD0120E030E01B
:1022E00048EC52E40E942902DC01CB01BC01CD0183
:1022F0000E945300DC01CB018B878D85805D8E872A
:10230000E6ECF0E08E85808381E090E00E944F074C
:102310008FE091E00E9470148C85805D8E87E6ECE2
:10232000F0E08E85808381E090E00E944F078B85EE
:10233000805D8E87E6ECF0E08E85808381E090E022
:102340000E944F07C0C21E8A6F85788989899A8941
:1023500020E030E040E251E40E94CF03882314F0F3
:1023600041E04E8B81E05E898527882309F0B1C06A
:102370001D8A6F85788989899A8920E030E048EC48
:1023800052E40E94FF03882314F481E08D8B81E0E6
:102390009D898927882309F09CC06F857889898960
:1023A0009A8920E030E040E251E40E942303DC01FE
:1023B000CB01BC01CD010E945300DC01CB018A8717
:1023C0008A85882F90E09C01220F331FC901880F56
:1023D000991F880F991F820F931FAA2797FDA09519
:1023E000BA2FBC01CD010E942F049B01AC016F8567
:1023F000788989899A890E94CB01DC01CB01BC01D3
:10240000CD010E945300DC01CB0189878985882F8B
:1024100090E0AA2797FDA095BA2FBC01CD010E949C
:102420002F049B01AC016F85788989899A890E9464
:10243000CB01DC01CB017C018D018A85882F90E0E6
:102440009C01220F331FC901880F991F880F991F04
:10245000820F931FAA2797FDA095BA2FBC01CD012B
:102460000E942F049B01AC01C801B7010E94CB015F
:10247000DC01CB01BC01CD0120E030E040E251E4C1
:102480000E942902DC01CB01BC01CD010E94530056
:10249000DC01CB018887E6ECF0E08A85805D8083F3
:1024A00081E090E00E944F07E6ECF0E08985805DD6
:1024B000808381E090E00E944F078FE091E00E94CE
:1024C00070148885805D8E87E6ECF0E08E858083D1
:1024D000FAC11C8A6F85788989899A8920E030E061
:1024E00048EC52E40E94CF03882314F041E04C8B67
:1024F00081E05C898527882309F0B5C01B8A6F8538
:10250000788989899A8920E030E04AE754E40E947A
:10251000FF03882314F481E08B8B81E09B8989275A
:10252000882309F0A0C06F85788989899A8920E07D
:1025300030E048EC52E40E942303DC01CB01BC01F3
:10254000CD010E945300DC01CB018F838F81282FA6
:1025500030E084E690E0AC01249FC001259F900DFF
:10256000349F900D1124AA2797FDA095BA2FBC0186
:10257000CD010E942F049B01AC016F857889898968
:102580009A890E94CB01DC01CB01BC01CD0120E086
:1025900030E040E251E40E942303DC01CB01BC01A6
:1025A000CD010E945300DC01CB018E838F81282F47
:1025B00030E084E690E0AC01249FC001259F900D9F
:1025C000349F900D1124AA2797FDA095BA2FBC0126
:1025D000CD010E942F049B01AC016F857889898908
:1025E0009A890E94CB01DC01CB017C018D018E8197
:1025F000882F90E09C01220F331FC901880F991F7B
:10260000880F991F820F931FAA2797FDA095BA2FB5
:10261000BC01CD010E942F049B01AC01C801B70190
:102620000E94CB01DC01CB01BC01CD010E94530013
:10263000DC01CB018D83E6ECF0E08F81805D80834F
:1026400081E090E00E944F07E6ECF0E08E81805D33
:10265000808381E090E00E944F07E6ECF0E08D81FE
:10266000805D808330C16F85788989899A8920E06F
:1026700030E04AE754E40E94CF0388230CF423C1DE
:102680006F85788989899A8920E030E44CE156E4A5
:102690000E94FF0388230CF016C16F857889898911
:1026A0009A8920E030E04AE754E40E942303DC01E9
:1026B000CB01BC01CD010E945300DC01CB018C8316
:1026C0008C81282F30E088EE93E0AC01249FC0017C
:1026D000259F900D349F900D1124AA2797FDA0955A
:1026E000BA2FBC01CD010E942F049B01AC016F8564
:1026F000788989899A890E94CB01DC01CB01BC01D0
:10270000CD0120E030E048EC52E40E942303DC01DC
:10271000CB01BC01CD010E945300DC01CB018B83B6
:102720008C81282F30E088EE93E0AC01249FC0011B
:10273000259F900D349F900D1124AA2797FDA095F9
:10274000BA2FBC01CD010E942F049B01AC016F8503
:10275000788989899A890E94CB01DC01CB017C01AF
:102760008D018B81282F30E084E690E0AC01249F1E
:10277000C001259F900D349F900D1124AA2797FD2D
:10278000A095BA2FBC01CD010E942F049B01AC0182
:10279000C801B7010E94CB01DC01CB01BC01CD0116
:1027A00020E030E040E251E40E942303DC01CB0151
:1027B000BC01CD010E945300DC01CB018A838C81D6
:1027C000282F30E088EE93E0AC01249FC001259FC4
:1027D000900D349F900D1124AA2797FDA095BA2F34
:1027E000BC01CD010E942F049B01AC016F8578894B
:1027F00089899A890E94CB01DC01CB017C018D0182
:102800008B81282F30E084E690E0AC01249FC0014A
:10281000259F900D349F900D1124AA2797FDA09518
:10282000BA2FBC01CD010E942F049B01AC01C8014D
:10283000B7010E94CB01DC01CB017C018D018A81B3
:10284000882F90E09C01220F331FC901880F991F28
:10285000880F991F820F931FAA2797FDA095BA2F63
:10286000BC01CD010E942F049B01AC01C801B7013E
:102870000E94CB01DC01CB01BC01CD010E945300C1
:10288000DC01CB018983E6ECF0E08C81805D808304
:1028900081E090E00E944F07E6ECF0E08B81805DE4
:1028A000808381E090E00E944F07E6ECF0E08A81AF
:1028B000805D808381E090E00E944F07E6ECF0E0CD
:1028C0008981805D808368960FB6F894DEBF0FBE65
:1028D000CDBFCF91DF911F910F91FF90EF900895A1
:1028E000DF93CF9300D000D0CDB7DEB79C838B832E
:1028F0001A82198214C0A6ECB0E029813A818B813A
:102900009C81FC01E20FF31F80818C9381E090E0B9
:102910000E944F0789819A8101969A838983298130
:102920003A818B819C81FC01E20FF31F8081882317
:1029300011F70F900F900F900F90CF91DF910895A6
:102940001F920F920FB60F9211242F933F934F9324
:102950005F936F937F938F939F93AF93BF93EF9307
:10296000FF93DF93CF9300D0CDB7DEB780913802CD
:1029700090913902E6ECF0E02081FC01E65CFD4F2D
:1029800020838091380290913902FC01E65CFD4F72
:1029900080818A3039F080913802909139028A30F2
:1029A0009105FCF08AE392E00E942C081A821982B9
:1029B0000CC089819A81FC01E65CFD4F80E3808335
:1029C00089819A8101969A83898389819A818A3043
:1029D00091057CF310924402109239021092380251
:1029E00009C0809138029091390201969093390282
:1029F000809338020F900F90CF91DF91FF91EF916C
:102A0000BF91AF919F918F917F916F915F914F9106
:102A10003F912F910F900FBE0F901F901895DF934D
:102A2000CF9300D000D00F92CDB7DEB70E94A90E91
:102A30001092370210923402109236021092350230
:102A400010921E0210921D021092200210921F027C
:102A50000E94FB0A0E94540A0E942A0A78941D824E
:102A60001C8284EB90E09B838A83198280912102EF
:102A7000882389F18C819D81843B910511F4198211
:102A800006C08C819D81009711F481E08983898142
:102A9000882359F08C819D8101969D838C838A8146
:102AA0009B8101979B838A830AC08C819D810197BA
:102AB0009D838C838A819B8101969B838A838C81F1
:102AC0009D8190931E0280931D028A819B81909329
:102AD000200280931F0280911D0290911E0264EBE0
:102AE00070E00E94EC0C80911F029091200264EB38
:102AF00070E00E94530D81E090E00E944F07B6CF36
:102B000097FB092E07260AD077FD04D00CD006D0FB
:102B100000201AF4709561957F4F0895F6F790950F
:102B200081959F4F0895AA1BBB1B51E107C0AA1FA7
:102B3000BB1FA617B70710F0A61BB70B881F991F5E
:102B40005A95A9F780959095BC01CD0108952F92D3
:102B50003F924F925F926F927F928F929F92AF922D
:102B6000BF92CF92DF92EF92FF920F931F93CF937A
:102B7000DF93CDB7DEB7CA1BDB0B0FB6F894DEBF11
:102B80000FBECDBF09942A88398848885F846E8437
:102B90007D848C849B84AA84B984C884DF80EE8081
:102BA000FD800C811B81AA81B981CE0FD11D0FB68A
:102BB000F894DEBF0FBECDBFED010895F894FFCFAE
:102BC000736572766F73756363657373000A002EA5
:102BD00000000000000000000000010202030303E7
:102BE000030404040404040404050505050505059F
:102BF000050505050505050505060606060606067E
:102C00000606060606060606060606060606060664
:102C1000060606060606060606070707070707074D
:102C20000707070707070707070707070707070734
:102C30000707070707070707070707070707070724
:102C40000707070707070707070707070707070714
:102C500007070707070707070708080808080808FD
:102C600008080808080808080808080808080808E4
:102C700008080808080808080808080808080808D4
:102C800008080808080808080808080808080808C4
:102C900008080808080808080808080808080808B4
:102CA00008080808080808080808080808080808A4
:102CB0000808080808080808080808080808080894
:102CC0000808080808080808080808080808080884
:0A2CD00008080808080808080800B2
:00000001FF
